{
  "contractName": "Flashloan",
  "abi": [
    {
      "inputs": [
        {
          "internalType": "address",
          "name": "kyberAddress",
          "type": "address"
        },
        {
          "internalType": "address",
          "name": "uniswapAddress",
          "type": "address"
        },
        {
          "internalType": "address",
          "name": "sushiswapAddress",
          "type": "address"
        },
        {
          "internalType": "address",
          "name": "onesplitAddress",
          "type": "address"
        },
        {
          "internalType": "address",
          "name": "BalancerExchangeAddress",
          "type": "address"
        },
        {
          "internalType": "address",
          "name": "wethAddress",
          "type": "address"
        },
        {
          "internalType": "address",
          "name": "beneficiaryAddress",
          "type": "address"
        }
      ],
      "stateMutability": "nonpayable",
      "type": "constructor"
    },
    {
      "anonymous": false,
      "inputs": [
        {
          "indexed": false,
          "internalType": "enum Flashloan.DExchange",
          "name": "buyFrom",
          "type": "uint8"
        },
        {
          "indexed": false,
          "internalType": "enum Flashloan.DExchange",
          "name": "sellTo",
          "type": "uint8"
        },
        {
          "indexed": false,
          "internalType": "address",
          "name": "token",
          "type": "address"
        },
        {
          "indexed": false,
          "internalType": "uint256",
          "name": "profit",
          "type": "uint256"
        },
        {
          "indexed": false,
          "internalType": "uint256",
          "name": "date",
          "type": "uint256"
        }
      ],
      "name": "newArbitrage",
      "type": "event"
    },
    {
      "stateMutability": "payable",
      "type": "fallback",
      "payable": true
    },
    {
      "inputs": [
        {
          "internalType": "address",
          "name": "sender",
          "type": "address"
        },
        {
          "components": [
            {
              "internalType": "address",
              "name": "owner",
              "type": "address"
            },
            {
              "internalType": "uint256",
              "name": "number",
              "type": "uint256"
            }
          ],
          "internalType": "struct Account.Info",
          "name": "account",
          "type": "tuple"
        },
        {
          "internalType": "bytes",
          "name": "data",
          "type": "bytes"
        }
      ],
      "name": "callFunction",
      "outputs": [],
      "stateMutability": "nonpayable",
      "type": "function"
    },
    {
      "inputs": [
        {
          "internalType": "address",
          "name": "_solo",
          "type": "address"
        },
        {
          "internalType": "address",
          "name": "_token",
          "type": "address"
        },
        {
          "internalType": "uint256",
          "name": "_amount",
          "type": "uint256"
        },
        {
          "internalType": "enum Flashloan.DExchange",
          "name": "_buyFrom",
          "type": "uint8"
        },
        {
          "internalType": "enum Flashloan.DExchange",
          "name": "_sellTo",
          "type": "uint8"
        },
        {
          "internalType": "address",
          "name": "_middleToken",
          "type": "address"
        }
      ],
      "name": "initiateFlashloan",
      "outputs": [],
      "stateMutability": "nonpayable",
      "type": "function"
    }
  ],
  "bytecode": "0x60806040526130396008553480156200001757600080fd5b50604051620050853803806200508583398181016040528101906200003d919062000268565b866000806101000a81548173ffffffffffffffffffffffffffffffffffffffff021916908373ffffffffffffffffffffffffffffffffffffffff16021790555085600160006101000a81548173ffffffffffffffffffffffffffffffffffffffff021916908373ffffffffffffffffffffffffffffffffffffffff16021790555084600260006101000a81548173ffffffffffffffffffffffffffffffffffffffff021916908373ffffffffffffffffffffffffffffffffffffffff16021790555083600360006101000a81548173ffffffffffffffffffffffffffffffffffffffff021916908373ffffffffffffffffffffffffffffffffffffffff16021790555082600460006101000a81548173ffffffffffffffffffffffffffffffffffffffff021916908373ffffffffffffffffffffffffffffffffffffffff16021790555081600660006101000a81548173ffffffffffffffffffffffffffffffffffffffff021916908373ffffffffffffffffffffffffffffffffffffffff16021790555081600560006101000a81548173ffffffffffffffffffffffffffffffffffffffff021916908373ffffffffffffffffffffffffffffffffffffffff16021790555080600960006101000a81548173ffffffffffffffffffffffffffffffffffffffff021916908373ffffffffffffffffffffffffffffffffffffffff1602179055505050505050505062000363565b600081519050620002628162000349565b92915050565b600080600080600080600060e0888a0312156200028457600080fd5b6000620002948a828b0162000251565b9750506020620002a78a828b0162000251565b9650506040620002ba8a828b0162000251565b9550506060620002cd8a828b0162000251565b9450506080620002e08a828b0162000251565b93505060a0620002f38a828b0162000251565b92505060c0620003068a828b0162000251565b91505092959891949750929550565b6000620003228262000329565b9050919050565b600073ffffffffffffffffffffffffffffffffffffffff82169050919050565b620003548162000315565b81146200036057600080fd5b50565b614d1280620003736000396000f3fe60806040526004361061004a576000357c0100000000000000000000000000000000000000000000000000000000900480637f8d97751461004d5780638b418713146100765761004b565b5b005b34801561005957600080fd5b50610074600480360381019061006f9190613b53565b61009f565b005b34801561008257600080fd5b5061009d60048036038101906100989190613bdc565b61039d565b005b600086905060006100b08888613200565b905060006100bd876133ea565b90508773ffffffffffffffffffffffffffffffffffffffff1663095ea7b38a836040518363ffffffff167c01000000000000000000000000000000000000000000000000000000000281526004016101169291906143fe565b602060405180830381600087803b15801561013057600080fd5b505af1158015610144573d6000803e3d6000fd5b505050506040513d601f19601f820116820180604052508101906101689190613cd8565b506060600367ffffffffffffffff8111801561018357600080fd5b506040519080825280602002602001820160405280156101bd57816020015b6101aa6136b1565b8152602001906001900390816101a25790505b5090506101ca8389613407565b816000815181106101d757fe5b602002602001018190525061025660405180608001604052808960048111156101fc57fe5b815260200188600481111561020d57fe5b81526020018773ffffffffffffffffffffffffffffffffffffffff1681526020018481525060405160200161024291906147d2565b6040516020818303038152906040526134c0565b8160018151811061026357fe5b6020026020010181905250610278838361356a565b8160028151811061028557fe5b60200260200101819052506060600167ffffffffffffffff811180156102aa57600080fd5b506040519080825280602002602001820160405280156102e457816020015b6102d161371d565b8152602001906001900390816102c95790505b5090506102ef613623565b816000815181106102fc57fe5b60200260200101819052508473ffffffffffffffffffffffffffffffffffffffff1663a67a6a4582846040518363ffffffff167c010000000000000000000000000000000000000000000000000000000002815260040161035e929190614427565b600060405180830381600087803b15801561037857600080fd5b505af115801561038c573d6000803e3d6000fd5b505050505050505050505050505050565b6103a561374d565b818060200190518101906103b99190613d01565b90506000600560009054906101000a900473ffffffffffffffffffffffffffffffffffffffff1673ffffffffffffffffffffffffffffffffffffffff166370a08231306040518263ffffffff167c0100000000000000000000000000000000000000000000000000000000028152600401610434919061439e565b60206040518083038186803b15801561044c57600080fd5b505afa158015610460573d6000803e3d6000fd5b505050506040513d601f19601f820116820180604052508101906104849190613d2a565b90506000826040015190506000600481111561049c57fe5b836000015160048111156104ac57fe5b141561078457600560009054906101000a900473ffffffffffffffffffffffffffffffffffffffff1673ffffffffffffffffffffffffffffffffffffffff1663095ea7b360008054906101000a900473ffffffffffffffffffffffffffffffffffffffff16846040518363ffffffff167c010000000000000000000000000000000000000000000000000000000002815260040161054b9291906143fe565b602060405180830381600087803b15801561056557600080fd5b505af1158015610579573d6000803e3d6000fd5b505050506040513d601f19601f8201168201806040525081019061059d9190613cd8565b5060008060009054906101000a900473ffffffffffffffffffffffffffffffffffffffff1673ffffffffffffffffffffffffffffffffffffffff1663809a9e55600560009054906101000a900473ffffffffffffffffffffffffffffffffffffffff1684866040518463ffffffff167c010000000000000000000000000000000000000000000000000000000002815260040161063c93929190614595565b604080518083038186803b15801561065357600080fd5b505afa158015610667573d6000803e3d6000fd5b505050506040513d601f19601f8201168201806040525081019061068b9190613da7565b50905060008054906101000a900473ffffffffffffffffffffffffffffffffffffffff1673ffffffffffffffffffffffffffffffffffffffff16637409e2eb600560009054906101000a900473ffffffffffffffffffffffffffffffffffffffff168585856040518563ffffffff167c010000000000000000000000000000000000000000000000000000000002815260040161072b9493929190614687565b602060405180830381600087803b15801561074557600080fd5b505af1158015610759573d6000803e3d6000fd5b505050506040513d601f19601f8201168201806040525081019061077d9190613d2a565b505061153f565b60048081111561079057fe5b836000015160048111156107a057fe5b1415610b5657600560009054906101000a900473ffffffffffffffffffffffffffffffffffffffff1673ffffffffffffffffffffffffffffffffffffffff1663095ea7b3600160009054906101000a900473ffffffffffffffffffffffffffffffffffffffff16846040518363ffffffff167c01000000000000000000000000000000000000000000000000000000000281526004016108419291906143fe565b602060405180830381600087803b15801561085b57600080fd5b505af115801561086f573d6000803e3d6000fd5b505050506040513d601f19601f820116820180604052508101906108939190613cd8565b506060600267ffffffffffffffff811180156108ae57600080fd5b506040519080825280602002602001820160405280156108dd5781602001602082028036833780820191505090505b509050600560009054906101000a900473ffffffffffffffffffffffffffffffffffffffff168160008151811061091057fe5b602002602001019073ffffffffffffffffffffffffffffffffffffffff16908173ffffffffffffffffffffffffffffffffffffffff1681525050818160018151811061095857fe5b602002602001019073ffffffffffffffffffffffffffffffffffffffff16908173ffffffffffffffffffffffffffffffffffffffff16815250506060600160009054906101000a900473ffffffffffffffffffffffffffffffffffffffff1673ffffffffffffffffffffffffffffffffffffffff1663d06ca61f85846040518363ffffffff167c0100000000000000000000000000000000000000000000000000000000028152600401610a0d929190614808565b60006040518083038186803b158015610a2557600080fd5b505afa158015610a39573d6000803e3d6000fd5b505050506040513d6000823e3d601f19601f82011682018060405250810190610a629190613c97565b9050600160009054906101000a900473ffffffffffffffffffffffffffffffffffffffff1673ffffffffffffffffffffffffffffffffffffffff166338ed17398583600181518110610ab057fe5b60200260200101518530426040518663ffffffff167c0100000000000000000000000000000000000000000000000000000000028152600401610af7959493929190614838565b600060405180830381600087803b158015610b1157600080fd5b505af1158015610b25573d6000803e3d6000fd5b505050506040513d6000823e3d601f19601f82011682018060405250810190610b4e9190613c97565b50505061153e565b60016004811115610b6357fe5b83600001516004811115610b7357fe5b1415610f2957600560009054906101000a900473ffffffffffffffffffffffffffffffffffffffff1673ffffffffffffffffffffffffffffffffffffffff1663095ea7b3600260009054906101000a900473ffffffffffffffffffffffffffffffffffffffff16846040518363ffffffff167c0100000000000000000000000000000000000000000000000000000000028152600401610c149291906143fe565b602060405180830381600087803b158015610c2e57600080fd5b505af1158015610c42573d6000803e3d6000fd5b505050506040513d601f19601f82011682018060405250810190610c669190613cd8565b506060600267ffffffffffffffff81118015610c8157600080fd5b50604051908082528060200260200182016040528015610cb05781602001602082028036833780820191505090505b509050600560009054906101000a900473ffffffffffffffffffffffffffffffffffffffff1681600081518110610ce357fe5b602002602001019073ffffffffffffffffffffffffffffffffffffffff16908173ffffffffffffffffffffffffffffffffffffffff16815250508181600181518110610d2b57fe5b602002602001019073ffffffffffffffffffffffffffffffffffffffff16908173ffffffffffffffffffffffffffffffffffffffff16815250506060600260009054906101000a900473ffffffffffffffffffffffffffffffffffffffff1673ffffffffffffffffffffffffffffffffffffffff1663d06ca61f85846040518363ffffffff167c0100000000000000000000000000000000000000000000000000000000028152600401610de0929190614808565b60006040518083038186803b158015610df857600080fd5b505afa158015610e0c573d6000803e3d6000fd5b505050506040513d6000823e3d601f19601f82011682018060405250810190610e359190613c97565b9050600260009054906101000a900473ffffffffffffffffffffffffffffffffffffffff1673ffffffffffffffffffffffffffffffffffffffff166338ed17398583600181518110610e8357fe5b60200260200101518530426040518663ffffffff167c0100000000000000000000000000000000000000000000000000000000028152600401610eca959493929190614838565b600060405180830381600087803b158015610ee457600080fd5b505af1158015610ef8573d6000803e3d6000fd5b505050506040513d6000823e3d601f19601f82011682018060405250810190610f219190613c97565b50505061153d565b60026004811115610f3657fe5b83600001516004811115610f4657fe5b141561125157600560009054906101000a900473ffffffffffffffffffffffffffffffffffffffff1673ffffffffffffffffffffffffffffffffffffffff1663095ea7b3600460009054906101000a900473ffffffffffffffffffffffffffffffffffffffff16846040518363ffffffff167c0100000000000000000000000000000000000000000000000000000000028152600401610fe79291906143fe565b602060405180830381600087803b15801561100157600080fd5b505af1158015611015573d6000803e3d6000fd5b505050506040513d601f19601f820116820180604052508101906110399190613cd8565b506000600460009054906101000a900473ffffffffffffffffffffffffffffffffffffffff1673ffffffffffffffffffffffffffffffffffffffff16634b0f93fb600560009054906101000a900473ffffffffffffffffffffffffffffffffffffffff168486600a6040518563ffffffff167c01000000000000000000000000000000000000000000000000000000000281526004016110dc94939291906143b9565b60006040518083038186803b1580156110f457600080fd5b505afa158015611108573d6000803e3d6000fd5b505050506040513d6000823e3d601f19601f820116820180604052508101906111319190613c43565b915050600460009054906101000a900473ffffffffffffffffffffffffffffffffffffffff1673ffffffffffffffffffffffffffffffffffffffff166321b0eb85600660009054906101000a900473ffffffffffffffffffffffffffffffffffffffff16600760009054906101000a900473ffffffffffffffffffffffffffffffffffffffff168685600a6040518663ffffffff167c01000000000000000000000000000000000000000000000000000000000281526004016111f89594939291906146cc565b602060405180830381600087803b15801561121257600080fd5b505af1158015611226573d6000803e3d6000fd5b505050506040513d601f19601f8201168201806040525081019061124a9190613d2a565b505061153c565b6003600481111561125e57fe5b8360000151600481111561126e57fe5b141561153b57600560009054906101000a900473ffffffffffffffffffffffffffffffffffffffff1673ffffffffffffffffffffffffffffffffffffffff1663095ea7b3600360009054906101000a900473ffffffffffffffffffffffffffffffffffffffff16846040518363ffffffff167c010000000000000000000000000000000000000000000000000000000002815260040161130f9291906143fe565b602060405180830381600087803b15801561132957600080fd5b505af115801561133d573d6000803e3d6000fd5b505050506040513d601f19601f820116820180604052508101906113619190613cd8565b5060006060600360009054906101000a900473ffffffffffffffffffffffffffffffffffffffff1673ffffffffffffffffffffffffffffffffffffffff1663085e2c5b600560009054906101000a900473ffffffffffffffffffffffffffffffffffffffff168587606460006040518663ffffffff167c01000000000000000000000000000000000000000000000000000000000281526004016114099594939291906145cc565b60006040518083038186803b15801561142157600080fd5b505afa158015611435573d6000803e3d6000fd5b505050506040513d6000823e3d601f19601f8201168201806040525081019061145e9190613d53565b91509150600360009054906101000a900473ffffffffffffffffffffffffffffffffffffffff1673ffffffffffffffffffffffffffffffffffffffff1663e2a7515e600560009054906101000a900473ffffffffffffffffffffffffffffffffffffffff168587868660006040518763ffffffff167c01000000000000000000000000000000000000000000000000000000000281526004016115069695949392919061461f565b600060405180830381600087803b15801561152057600080fd5b505af1158015611534573d6000803e3d6000fd5b5050505050505b5b5b5b5b6000600481111561154c57fe5b8360200151600481111561155c57fe5b14156119fe578073ffffffffffffffffffffffffffffffffffffffff1663095ea7b360008054906101000a900473ffffffffffffffffffffffffffffffffffffffff168373ffffffffffffffffffffffffffffffffffffffff166370a08231306040518263ffffffff167c01000000000000000000000000000000000000000000000000000000000281526004016115f4919061439e565b60206040518083038186803b15801561160c57600080fd5b505afa158015611620573d6000803e3d6000fd5b505050506040513d601f19601f820116820180604052508101906116449190613d2a565b6040518363ffffffff167c010000000000000000000000000000000000000000000000000000000002815260040161167d9291906143fe565b602060405180830381600087803b15801561169757600080fd5b505af11580156116ab573d6000803e3d6000fd5b505050506040513d601f19601f820116820180604052508101906116cf9190613cd8565b5060008060009054906101000a900473ffffffffffffffffffffffffffffffffffffffff1673ffffffffffffffffffffffffffffffffffffffff1663809a9e5583600560009054906101000a900473ffffffffffffffffffffffffffffffffffffffff168573ffffffffffffffffffffffffffffffffffffffff166370a08231306040518263ffffffff167c0100000000000000000000000000000000000000000000000000000000028152600401611788919061439e565b60206040518083038186803b1580156117a057600080fd5b505afa1580156117b4573d6000803e3d6000fd5b505050506040513d601f19601f820116820180604052508101906117d89190613d2a565b6040518463ffffffff167c01000000000000000000000000000000000000000000000000000000000281526004016118129392919061445e565b604080518083038186803b15801561182957600080fd5b505afa15801561183d573d6000803e3d6000fd5b505050506040513d601f19601f820116820180604052508101906118619190613da7565b50905060008054906101000a900473ffffffffffffffffffffffffffffffffffffffff1673ffffffffffffffffffffffffffffffffffffffff16637409e2eb838473ffffffffffffffffffffffffffffffffffffffff166370a08231306040518263ffffffff167c01000000000000000000000000000000000000000000000000000000000281526004016118f6919061439e565b60206040518083038186803b15801561190e57600080fd5b505afa158015611922573d6000803e3d6000fd5b505050506040513d601f19601f820116820180604052508101906119469190613d2a565b600560009054906101000a900473ffffffffffffffffffffffffffffffffffffffff16856040518563ffffffff167c01000000000000000000000000000000000000000000000000000000000281526004016119a59493929190614550565b602060405180830381600087803b1580156119bf57600080fd5b505af11580156119d3573d6000803e3d6000fd5b505050506040513d601f19601f820116820180604052508101906119f79190613d2a565b5050612ee1565b600480811115611a0a57fe5b83602001516004811115611a1a57fe5b1415611f9a578073ffffffffffffffffffffffffffffffffffffffff1663095ea7b3600160009054906101000a900473ffffffffffffffffffffffffffffffffffffffff168373ffffffffffffffffffffffffffffffffffffffff166370a08231306040518263ffffffff167c0100000000000000000000000000000000000000000000000000000000028152600401611ab4919061439e565b60206040518083038186803b158015611acc57600080fd5b505afa158015611ae0573d6000803e3d6000fd5b505050506040513d601f19601f82011682018060405250810190611b049190613d2a565b6040518363ffffffff167c0100000000000000000000000000000000000000000000000000000000028152600401611b3d9291906143fe565b602060405180830381600087803b158015611b5757600080fd5b505af1158015611b6b573d6000803e3d6000fd5b505050506040513d601f19601f82011682018060405250810190611b8f9190613cd8565b506060600267ffffffffffffffff81118015611baa57600080fd5b50604051908082528060200260200182016040528015611bd95781602001602082028036833780820191505090505b5090508181600081518110611bea57fe5b602002602001019073ffffffffffffffffffffffffffffffffffffffff16908173ffffffffffffffffffffffffffffffffffffffff1681525050600560009054906101000a900473ffffffffffffffffffffffffffffffffffffffff1681600181518110611c5457fe5b602002602001019073ffffffffffffffffffffffffffffffffffffffff16908173ffffffffffffffffffffffffffffffffffffffff16815250506060600160009054906101000a900473ffffffffffffffffffffffffffffffffffffffff1673ffffffffffffffffffffffffffffffffffffffff1663d06ca61f8473ffffffffffffffffffffffffffffffffffffffff166370a08231306040518263ffffffff167c0100000000000000000000000000000000000000000000000000000000028152600401611d23919061439e565b60206040518083038186803b158015611d3b57600080fd5b505afa158015611d4f573d6000803e3d6000fd5b505050506040513d601f19601f82011682018060405250810190611d739190613d2a565b846040518363ffffffff167c0100000000000000000000000000000000000000000000000000000000028152600401611dad929190614808565b60006040518083038186803b158015611dc557600080fd5b505afa158015611dd9573d6000803e3d6000fd5b505050506040513d6000823e3d601f19601f82011682018060405250810190611e029190613c97565b9050600160009054906101000a900473ffffffffffffffffffffffffffffffffffffffff1673ffffffffffffffffffffffffffffffffffffffff166338ed17398473ffffffffffffffffffffffffffffffffffffffff166370a08231306040518263ffffffff167c0100000000000000000000000000000000000000000000000000000000028152600401611e97919061439e565b60206040518083038186803b158015611eaf57600080fd5b505afa158015611ec3573d6000803e3d6000fd5b505050506040513d601f19601f82011682018060405250810190611ee79190613d2a565b83600181518110611ef457fe5b60200260200101518530426040518663ffffffff167c0100000000000000000000000000000000000000000000000000000000028152600401611f3b959493929190614838565b600060405180830381600087803b158015611f5557600080fd5b505af1158015611f69573d6000803e3d6000fd5b505050506040513d6000823e3d601f19601f82011682018060405250810190611f929190613c97565b505050612ee0565b60016004811115611fa757fe5b83602001516004811115611fb757fe5b1415612537578073ffffffffffffffffffffffffffffffffffffffff1663095ea7b3600260009054906101000a900473ffffffffffffffffffffffffffffffffffffffff168373ffffffffffffffffffffffffffffffffffffffff166370a08231306040518263ffffffff167c0100000000000000000000000000000000000000000000000000000000028152600401612051919061439e565b60206040518083038186803b15801561206957600080fd5b505afa15801561207d573d6000803e3d6000fd5b505050506040513d601f19601f820116820180604052508101906120a19190613d2a565b6040518363ffffffff167c01000000000000000000000000000000000000000000000000000000000281526004016120da9291906143fe565b602060405180830381600087803b1580156120f457600080fd5b505af1158015612108573d6000803e3d6000fd5b505050506040513d601f19601f8201168201806040525081019061212c9190613cd8565b506060600267ffffffffffffffff8111801561214757600080fd5b506040519080825280602002602001820160405280156121765781602001602082028036833780820191505090505b509050818160008151811061218757fe5b602002602001019073ffffffffffffffffffffffffffffffffffffffff16908173ffffffffffffffffffffffffffffffffffffffff1681525050600560009054906101000a900473ffffffffffffffffffffffffffffffffffffffff16816001815181106121f157fe5b602002602001019073ffffffffffffffffffffffffffffffffffffffff16908173ffffffffffffffffffffffffffffffffffffffff16815250506060600260009054906101000a900473ffffffffffffffffffffffffffffffffffffffff1673ffffffffffffffffffffffffffffffffffffffff1663d06ca61f8473ffffffffffffffffffffffffffffffffffffffff166370a08231306040518263ffffffff167c01000000000000000000000000000000000000000000000000000000000281526004016122c0919061439e565b60206040518083038186803b1580156122d857600080fd5b505afa1580156122ec573d6000803e3d6000fd5b505050506040513d601f19601f820116820180604052508101906123109190613d2a565b846040518363ffffffff167c010000000000000000000000000000000000000000000000000000000002815260040161234a929190614808565b60006040518083038186803b15801561236257600080fd5b505afa158015612376573d6000803e3d6000fd5b505050506040513d6000823e3d601f19601f8201168201806040525081019061239f9190613c97565b9050600260009054906101000a900473ffffffffffffffffffffffffffffffffffffffff1673ffffffffffffffffffffffffffffffffffffffff166338ed17398473ffffffffffffffffffffffffffffffffffffffff166370a08231306040518263ffffffff167c0100000000000000000000000000000000000000000000000000000000028152600401612434919061439e565b60206040518083038186803b15801561244c57600080fd5b505afa158015612460573d6000803e3d6000fd5b505050506040513d601f19601f820116820180604052508101906124849190613d2a565b8360018151811061249157fe5b60200260200101518530426040518663ffffffff167c01000000000000000000000000000000000000000000000000000000000281526004016124d8959493929190614838565b600060405180830381600087803b1580156124f257600080fd5b505af1158015612506573d6000803e3d6000fd5b505050506040513d6000823e3d601f19601f8201168201806040525081019061252f9190613c97565b505050612edf565b6002600481111561254457fe5b8360200151600481111561255457fe5b1415612a29578073ffffffffffffffffffffffffffffffffffffffff1663095ea7b3600460009054906101000a900473ffffffffffffffffffffffffffffffffffffffff168373ffffffffffffffffffffffffffffffffffffffff166370a08231306040518263ffffffff167c01000000000000000000000000000000000000000000000000000000000281526004016125ee919061439e565b60206040518083038186803b15801561260657600080fd5b505afa15801561261a573d6000803e3d6000fd5b505050506040513d601f19601f8201168201806040525081019061263e9190613d2a565b6040518363ffffffff167c01000000000000000000000000000000000000000000000000000000000281526004016126779291906143fe565b602060405180830381600087803b15801561269157600080fd5b505af11580156126a5573d6000803e3d6000fd5b505050506040513d601f19601f820116820180604052508101906126c99190613cd8565b506000600460009054906101000a900473ffffffffffffffffffffffffffffffffffffffff1673ffffffffffffffffffffffffffffffffffffffff16634b0f93fb83600560009054906101000a900473ffffffffffffffffffffffffffffffffffffffff168573ffffffffffffffffffffffffffffffffffffffff166370a08231306040518263ffffffff167c0100000000000000000000000000000000000000000000000000000000028152600401612783919061439e565b60206040518083038186803b15801561279b57600080fd5b505afa1580156127af573d6000803e3d6000fd5b505050506040513d601f19601f820116820180604052508101906127d39190613d2a565b600a6040518563ffffffff167c010000000000000000000000000000000000000000000000000000000002815260040161281094939291906143b9565b60006040518083038186803b15801561282857600080fd5b505afa15801561283c573d6000803e3d6000fd5b505050506040513d6000823e3d601f19601f820116820180604052508101906128659190613c43565b915050600460009054906101000a900473ffffffffffffffffffffffffffffffffffffffff1673ffffffffffffffffffffffffffffffffffffffff166321b0eb85600760009054906101000a900473ffffffffffffffffffffffffffffffffffffffff16600660009054906101000a900473ffffffffffffffffffffffffffffffffffffffff168573ffffffffffffffffffffffffffffffffffffffff166370a08231306040518263ffffffff167c0100000000000000000000000000000000000000000000000000000000028152600401612941919061439e565b60206040518083038186803b15801561295957600080fd5b505afa15801561296d573d6000803e3d6000fd5b505050506040513d601f19601f820116820180604052508101906129919190613d2a565b85600a6040518663ffffffff167c01000000000000000000000000000000000000000000000000000000000281526004016129d09594939291906146cc565b602060405180830381600087803b1580156129ea57600080fd5b505af11580156129fe573d6000803e3d6000fd5b505050506040513d601f19601f82011682018060405250810190612a229190613d2a565b5050612ede565b60036004811115612a3657fe5b83602001516004811115612a4657fe5b1415612edd578073ffffffffffffffffffffffffffffffffffffffff1663095ea7b3600360009054906101000a900473ffffffffffffffffffffffffffffffffffffffff168373ffffffffffffffffffffffffffffffffffffffff166370a08231306040518263ffffffff167c0100000000000000000000000000000000000000000000000000000000028152600401612ae0919061439e565b60206040518083038186803b158015612af857600080fd5b505afa158015612b0c573d6000803e3d6000fd5b505050506040513d601f19601f82011682018060405250810190612b309190613d2a565b6040518363ffffffff167c0100000000000000000000000000000000000000000000000000000000028152600401612b699291906143fe565b602060405180830381600087803b158015612b8357600080fd5b505af1158015612b97573d6000803e3d6000fd5b505050506040513d601f19601f82011682018060405250810190612bbb9190613cd8565b5060006060600360009054906101000a900473ffffffffffffffffffffffffffffffffffffffff1673ffffffffffffffffffffffffffffffffffffffff1663085e2c5b84600560009054906101000a900473ffffffffffffffffffffffffffffffffffffffff168673ffffffffffffffffffffffffffffffffffffffff166370a08231306040518263ffffffff167c0100000000000000000000000000000000000000000000000000000000028152600401612c77919061439e565b60206040518083038186803b158015612c8f57600080fd5b505afa158015612ca3573d6000803e3d6000fd5b505050506040513d601f19601f82011682018060405250810190612cc79190613d2a565b606460006040518663ffffffff167c0100000000000000000000000000000000000000000000000000000000028152600401612d07959493929190614495565b60006040518083038186803b158015612d1f57600080fd5b505afa158015612d33573d6000803e3d6000fd5b505050506040513d6000823e3d601f19601f82011682018060405250810190612d5c9190613d53565b91509150600360009054906101000a900473ffffffffffffffffffffffffffffffffffffffff1673ffffffffffffffffffffffffffffffffffffffff1663e2a7515e84600560009054906101000a900473ffffffffffffffffffffffffffffffffffffffff168673ffffffffffffffffffffffffffffffffffffffff166370a08231306040518263ffffffff167c0100000000000000000000000000000000000000000000000000000000028152600401612e17919061439e565b60206040518083038186803b158015612e2f57600080fd5b505afa158015612e43573d6000803e3d6000fd5b505050506040513d601f19601f82011682018060405250810190612e679190613d2a565b868660006040518763ffffffff167c0100000000000000000000000000000000000000000000000000000000028152600401612ea8969594939291906144e8565b600060405180830381600087803b158015612ec257600080fd5b505af1158015612ed6573d6000803e3d6000fd5b5050505050505b5b5b5b5b8260600151600560009054906101000a900473ffffffffffffffffffffffffffffffffffffffff1673ffffffffffffffffffffffffffffffffffffffff166370a08231306040518263ffffffff167c0100000000000000000000000000000000000000000000000000000000028152600401612f5d919061439e565b60206040518083038186803b158015612f7557600080fd5b505afa158015612f89573d6000803e3d6000fd5b505050506040513d601f19601f82011682018060405250810190612fad9190613d2a565b11612fed576040517f08c379a0000000000000000000000000000000000000000000000000000000008152600401612fe490614792565b60405180910390fd5b60008360600151600560009054906101000a900473ffffffffffffffffffffffffffffffffffffffff1673ffffffffffffffffffffffffffffffffffffffff166370a08231306040518263ffffffff167c010000000000000000000000000000000000000000000000000000000002815260040161306b919061439e565b60206040518083038186803b15801561308357600080fd5b505afa158015613097573d6000803e3d6000fd5b505050506040513d601f19601f820116820180604052508101906130bb9190613d2a565b039050600560009054906101000a900473ffffffffffffffffffffffffffffffffffffffff1673ffffffffffffffffffffffffffffffffffffffff1663a9059cbb600960009054906101000a900473ffffffffffffffffffffffffffffffffffffffff16836040518363ffffffff167c01000000000000000000000000000000000000000000000000000000000281526004016131599291906143fe565b602060405180830381600087803b15801561317357600080fd5b505af1158015613187573d6000803e3d6000fd5b505050506040513d601f19601f820116820180604052508101906131ab9190613cd8565b507fa06c2daf32e72afde6a2b9f1e847155a76efee1309bcb0d5d71b3bd53988a32b84600001518560200151866040015184426040516131ef95949392919061471f565b60405180910390a150505050505050565b60008083905060008173ffffffffffffffffffffffffffffffffffffffff1663295c39a56040518163ffffffff167c010000000000000000000000000000000000000000000000000000000002815260040160206040518083038186803b15801561326a57600080fd5b505afa15801561327e573d6000803e3d6000fd5b505050506040513d601f19601f820116820180604052508101906132a29190613d2a565b9050600080600090505b828110156133a8578373ffffffffffffffffffffffffffffffffffffffff1663062bd3e9826040518263ffffffff167c010000000000000000000000000000000000000000000000000000000002815260040161330991906147ed565b60206040518083038186803b15801561332157600080fd5b505afa158015613335573d6000803e3d6000fd5b505050506040513d601f19601f820116820180604052508101906133599190613b2a565b91508573ffffffffffffffffffffffffffffffffffffffff168273ffffffffffffffffffffffffffffffffffffffff16141561339b57809450505050506133e4565b80806001019150506132ac565b506040517f08c379a00000000000000000000000000000000000000000000000000000000081526004016133db906147b2565b60405180910390fd5b92915050565b600061340060028361365c90919063ffffffff16565b9050919050565b61340f6136b1565b6040518061010001604052806001600881111561342857fe5b81526020016000815260200160405180608001604052806000151581526020016000600181111561345557fe5b81526020016000600181111561346757fe5b8152602001858152508152602001848152602001600081526020013073ffffffffffffffffffffffffffffffffffffffff1681526020016000815260200160405180602001604052806000815250815250905092915050565b6134c86136b1565b6040518061010001604052806008808111156134e057fe5b81526020016000815260200160405180608001604052806000151581526020016000600181111561350d57fe5b81526020016000600181111561351f57fe5b81526020016000815250815260200160008152602001600081526020013073ffffffffffffffffffffffffffffffffffffffff16815260200160008152602001838152509050919050565b6135726136b1565b6040518061010001604052806000600881111561358b57fe5b8152602001600081526020016040518060800160405280600115158152602001600060018111156135b857fe5b8152602001600060018111156135ca57fe5b8152602001858152508152602001848152602001600081526020013073ffffffffffffffffffffffffffffffffffffffff1681526020016000815260200160405180602001604052806000815250815250905092915050565b61362b61371d565b60405180604001604052803073ffffffffffffffffffffffffffffffffffffffff1681526020016001815250905090565b6000808284019050838110156136a7576040517f08c379a000000000000000000000000000000000000000000000000000000000815260040161369e90614772565b60405180910390fd5b8091505092915050565b604051806101000160405280600060088111156136ca57fe5b8152602001600081526020016136de6137a1565b81526020016000815260200160008152602001600073ffffffffffffffffffffffffffffffffffffffff16815260200160008152602001606081525090565b6040518060400160405280600073ffffffffffffffffffffffffffffffffffffffff168152602001600081525090565b60405180608001604052806000600481111561376557fe5b81526020016000600481111561377757fe5b8152602001600073ffffffffffffffffffffffffffffffffffffffff168152602001600081525090565b6040518060800160405280600015158152602001600060018111156137c257fe5b8152602001600060018111156137d457fe5b8152602001600081525090565b6000813590506137f081614c87565b92915050565b60008151905061380581614c87565b92915050565b600082601f83011261381c57600080fd5b815161382f61382a826148bf565b614892565b915081818352602084019350602081019050838560c084028201111561385457600080fd5b60005b83811015613884578161386a8882613a64565b845260208401935060c08301925050600181019050613857565b5050505092915050565b600082601f83011261389f57600080fd5b81516138b26138ad826148e7565b614892565b915081818352602084019350602081019050838560208402820111156138d757600080fd5b60005b8381101561390757816138ed8882613b15565b8452602084019350602083019250506001810190506138da565b5050505092915050565b60008151905061392081614c9e565b92915050565b600082601f83011261393757600080fd5b813561394a6139458261490f565b614892565b9150808252602083016020830185838301111561396657600080fd5b613971838284614c00565b50505092915050565b60008135905061398981614cb5565b92915050565b60008151905061399e81614cb5565b92915050565b6000608082840312156139b657600080fd5b6139c06080614892565b905060006139d08482850161398f565b60008301525060206139e48482850161398f565b60208301525060406139f8848285016137f6565b6040830152506060613a0c84828501613b15565b60608301525092915050565b600060408284031215613a2a57600080fd5b613a346040614892565b90506000613a44848285016137e1565b6000830152506020613a5884828501613b00565b60208301525092915050565b600060c08284031215613a7657600080fd5b613a8060c0614892565b90506000613a90848285016137f6565b6000830152506020613aa4848285016137f6565b6020830152506040613ab8848285016137f6565b6040830152506060613acc84828501613b15565b6060830152506080613ae084828501613b15565b60808301525060a0613af484828501613b15565b60a08301525092915050565b600081359050613b0f81614cc5565b92915050565b600081519050613b2481614cc5565b92915050565b600060208284031215613b3c57600080fd5b6000613b4a848285016137f6565b91505092915050565b60008060008060008060c08789031215613b6c57600080fd5b6000613b7a89828a016137e1565b9650506020613b8b89828a016137e1565b9550506040613b9c89828a01613b00565b9450506060613bad89828a0161397a565b9350506080613bbe89828a0161397a565b92505060a0613bcf89828a016137e1565b9150509295509295509295565b600080600060808486031215613bf157600080fd5b6000613bff868287016137e1565b9350506020613c1086828701613a18565b925050606084013567ffffffffffffffff811115613c2d57600080fd5b613c3986828701613926565b9150509250925092565b60008060408385031215613c5657600080fd5b600083015167ffffffffffffffff811115613c7057600080fd5b613c7c8582860161380b565b9250506020613c8d85828601613b15565b9150509250929050565b600060208284031215613ca957600080fd5b600082015167ffffffffffffffff811115613cc357600080fd5b613ccf8482850161388e565b91505092915050565b600060208284031215613cea57600080fd5b6000613cf884828501613911565b91505092915050565b600060808284031215613d1357600080fd5b6000613d21848285016139a4565b91505092915050565b600060208284031215613d3c57600080fd5b6000613d4a84828501613b15565b91505092915050565b60008060408385031215613d6657600080fd5b6000613d7485828601613b15565b925050602083015167ffffffffffffffff811115613d9157600080fd5b613d9d8582860161388e565b9150509250929050565b60008060408385031215613dba57600080fd5b6000613dc885828601613b15565b9250506020613dd985828601613b15565b9150509250929050565b6000613def8383613e4e565b60208301905092915050565b6000613e0783836141f4565b905092915050565b6000613e1b8383614351565b60408301905092915050565b6000613e338383614380565b60208301905092915050565b613e4881614ae0565b82525050565b613e5781614a4c565b82525050565b613e6681614a4c565b82525050565b6000613e778261497b565b613e8181856149e6565b9350613e8c8361493b565b8060005b83811015613ebd578151613ea48882613de3565b9750613eaf836149b2565b925050600181019050613e90565b5085935050505092915050565b6000613ed582614986565b613edf81856149f7565b935083602082028501613ef18561494b565b8060005b85811015613f2d5784840389528151613f0e8582613dfb565b9450613f19836149bf565b925060208a01995050600181019050613ef5565b50829750879550505050505092915050565b6000613f4a82614991565b613f548185614a08565b9350613f5f8361495b565b8060005b83811015613f90578151613f778882613e0f565b9750613f82836149cc565b925050600181019050613f63565b5085935050505092915050565b6000613fa88261499c565b613fb28185614a19565b9350613fbd8361496b565b8060005b83811015613fee578151613fd58882613e27565b9750613fe0836149d9565b925050600181019050613fc1565b5085935050505092915050565b61400481614a5e565b82525050565b6000614015826149a7565b61401f8185614a2a565b935061402f818560208601614c0f565b61403881614c42565b840191505092915050565b61404c81614af2565b82525050565b61405b81614b16565b82525050565b61406a81614b3a565b82525050565b61407981614b5e565b82525050565b61408881614b70565b82525050565b61409781614b82565b82525050565b6140a681614b94565b82525050565b6140b581614b94565b82525050565b6140c481614ba6565b82525050565b6140d381614bb8565b82525050565b6140e281614bca565b82525050565b60006140f5601b83614a3b565b91507f536166654d6174683a206164646974696f6e206f766572666c6f7700000000006000830152602082019050919050565b6000614135602e83614a3b565b91507f4e6f7420656e6f7567682066756e647320746f2072657475726e20746865204460008301527f592f445820666c6173686c6f616e0000000000000000000000000000000000006020830152604082019050919050565b600061419b602483614a3b565b91507f4e6f206d61726b6574496420666f756e6420666f722070726f7669646564207460008301527f6f6b656e000000000000000000000000000000000000000000000000000000006020830152604082019050919050565b60006101608301600083015161420d6000860182614070565b5060208301516142206020860182614380565b50604083015161423360408601826142fc565b50606083015161424660c0860182614380565b50608083015161425960e0860182614380565b5060a083015161426d610100860182613e4e565b5060c0830151614281610120860182614380565b5060e083015184820361014086015261429a828261400a565b9150508091505092915050565b6080820160008201516142bd600085018261409d565b5060208201516142d0602085018261409d565b5060408201516142e36040850182613e4e565b5060608201516142f66060850182614380565b50505050565b6080820160008201516143126000850182613ffb565b506020820151614325602085018261407f565b506040820151614338604085018261408e565b50606082015161434b6060850182614380565b50505050565b6040820160008201516143676000850182613e4e565b50602082015161437a6020850182614380565b50505050565b61438981614ad6565b82525050565b61439881614ad6565b82525050565b60006020820190506143b36000830184613e3f565b92915050565b60006080820190506143ce6000830187613e5d565b6143db6020830186613e5d565b6143e8604083018561438f565b6143f560608301846140d9565b95945050505050565b60006040820190506144136000830185613e5d565b614420602083018461438f565b9392505050565b600060408201905081810360008301526144418185613f3f565b905081810360208301526144558184613eca565b90509392505050565b60006060820190506144736000830186614043565b6144806020830185614052565b61448d604083018461438f565b949350505050565b600060a0820190506144aa6000830188614043565b6144b76020830187614052565b6144c4604083018661438f565b6144d160608301856140ca565b6144de60808301846140bb565b9695505050505050565b600060c0820190506144fd6000830189614043565b61450a6020830188614052565b614517604083018761438f565b614524606083018661438f565b81810360808301526145368185613f9d565b905061454560a08301846140bb565b979650505050505050565b60006080820190506145656000830187614043565b614572602083018661438f565b61457f6040830185614052565b61458c606083018461438f565b95945050505050565b60006060820190506145aa6000830186614052565b6145b76020830185614043565b6145c4604083018461438f565b949350505050565b600060a0820190506145e16000830188614052565b6145ee6020830187614043565b6145fb604083018661438f565b61460860608301856140ca565b61461560808301846140bb565b9695505050505050565b600060c0820190506146346000830189614052565b6146416020830188614043565b61464e604083018761438f565b61465b606083018661438f565b818103608083015261466d8185613f9d565b905061467c60a08301846140bb565b979650505050505050565b600060808201905061469c6000830187614052565b6146a9602083018661438f565b6146b66040830185614043565b6146c3606083018461438f565b95945050505050565b600060a0820190506146e16000830188614061565b6146ee6020830187614061565b6146fb604083018661438f565b614708606083018561438f565b61471560808301846140d9565b9695505050505050565b600060a08201905061473460008301886140ac565b61474160208301876140ac565b61474e6040830186613e5d565b61475b606083018561438f565b614768608083018461438f565b9695505050505050565b6000602082019050818103600083015261478b816140e8565b9050919050565b600060208201905081810360008301526147ab81614128565b9050919050565b600060208201905081810360008301526147cb8161418e565b9050919050565b60006080820190506147e760008301846142a7565b92915050565b6000602082019050614802600083018461438f565b92915050565b600060408201905061481d600083018561438f565b818103602083015261482f8184613e6c565b90509392505050565b600060a08201905061484d600083018861438f565b61485a602083018761438f565b818103604083015261486c8186613e6c565b905061487b6060830185613e3f565b614888608083018461438f565b9695505050505050565b6000604051905081810181811067ffffffffffffffff821117156148b557600080fd5b8060405250919050565b600067ffffffffffffffff8211156148d657600080fd5b602082029050602081019050919050565b600067ffffffffffffffff8211156148fe57600080fd5b602082029050602081019050919050565b600067ffffffffffffffff82111561492657600080fd5b601f19601f8301169050602081019050919050565b6000819050602082019050919050565b6000819050602082019050919050565b6000819050602082019050919050565b6000819050602082019050919050565b600081519050919050565b600081519050919050565b600081519050919050565b600081519050919050565b600081519050919050565b6000602082019050919050565b6000602082019050919050565b6000602082019050919050565b6000602082019050919050565b600082825260208201905092915050565b600082825260208201905092915050565b600082825260208201905092915050565b600082825260208201905092915050565b600082825260208201905092915050565b600082825260208201905092915050565b6000614a5782614ab6565b9050919050565b60008115159050919050565b6000819050614a7882614c53565b919050565b6000819050614a8b82614c60565b919050565b6000819050614a9e82614c6d565b919050565b6000819050614ab182614c7a565b919050565b600073ffffffffffffffffffffffffffffffffffffffff82169050919050565b6000819050919050565b6000614aeb82614bdc565b9050919050565b6000614afd82614b04565b9050919050565b6000614b0f82614ab6565b9050919050565b6000614b2182614b28565b9050919050565b6000614b3382614ab6565b9050919050565b6000614b4582614b4c565b9050919050565b6000614b5782614ab6565b9050919050565b6000614b6982614a6a565b9050919050565b6000614b7b82614a7d565b9050919050565b6000614b8d82614a90565b9050919050565b6000614b9f82614aa3565b9050919050565b6000614bb182614ad6565b9050919050565b6000614bc382614ad6565b9050919050565b6000614bd582614ad6565b9050919050565b6000614be782614bee565b9050919050565b6000614bf982614ab6565b9050919050565b82818337600083830152505050565b60005b83811015614c2d578082015181840152602081019050614c12565b83811115614c3c576000848401525b50505050565b6000601f19601f8301169050919050565b60098110614c5d57fe5b50565b60028110614c6a57fe5b50565b60028110614c7757fe5b50565b60058110614c8457fe5b50565b614c9081614a4c565b8114614c9b57600080fd5b50565b614ca781614a5e565b8114614cb257600080fd5b50565b60058110614cc257600080fd5b50565b614cce81614ad6565b8114614cd957600080fd5b5056fea26469706673582212209f5af68d122cd404726179a7874ccde4ce0120ddac61637c3849c65326f0442964736f6c634300060c0033",
  "immutableReferences": {},
  "source": "pragma solidity >=0.5.0 <=0.8.0;\r\npragma experimental ABIEncoderV2;\r\n\r\nimport \"@studydefi/money-legos/dydx/contracts/DydxFlashloanBase.sol\";\r\nimport \"@studydefi/money-legos/dydx/contracts/ICallee.sol\";\r\nimport \"@studydefi/money-legos/onesplit/contracts/IOneSplit.sol\";\r\nimport \"@studydefi/money-legos/balancer/contracts/ExchangeProxy.sol\";\r\n\r\nimport \"@openzeppelin/contracts/token/ERC20/IERC20.sol\";\r\nimport \"./IUniswapV2Router02.sol\";\r\nimport \"./IWeth.sol\";\r\nimport { KyberNetworkProxy as IKyberNetworkProxy } from '@studydefi/money-legos/kyber/contracts/KyberNetworkProxy.sol';\r\n\r\n\r\ncontract Flashloan is ICallee, DydxFlashloanBase {\r\n\r\n    enum DExchange{Kyber, Sushiswap, Balancer , Oneinch, Uniswap}\r\n\r\n    struct ArbInfo {\r\n        DExchange buyFrom;\r\n        DExchange sellTo;\r\n        address middleToken;\r\n        uint256 repayAmount;\r\n    }\r\n\r\n    IKyberNetworkProxy kyber;\r\n    IUniswapV2Router02 uniswap;\r\n    IUniswapV2Router02 sushiswap;\r\n    IOneSplit onesplit;\r\n    ExchangeProxy balancerExchange;\r\n    IWETH weth;\r\n    TokenInterface wethTokenInterface;\r\n    TokenInterface tokenTokenInterface;\r\n    \r\n    uint programCode = 12345;\r\n    \r\n    address beneficiary;\r\n    address constant KYBER_ETH_ADDRESS = 0xEeeeeEeeeEeEeeEeEeEeeEEEeeeeEeeeeeeeEEeE;\r\n\r\n    event newArbitrage(DExchange buyFrom , DExchange sellTo , address token , uint profit , uint date);\r\n\r\n    constructor(\r\n        address kyberAddress,\r\n        address uniswapAddress,\r\n        address sushiswapAddress,\r\n        address onesplitAddress,\r\n        address BalancerExchangeAddress,\r\n        address wethAddress,\r\n        address beneficiaryAddress\r\n    ) public {\r\n        kyber = IKyberNetworkProxy (kyberAddress);\r\n        uniswap = IUniswapV2Router02 (uniswapAddress);\r\n        sushiswap = IUniswapV2Router02(sushiswapAddress);\r\n        onesplit = IOneSplit (onesplitAddress);\r\n        balancerExchange = ExchangeProxy (BalancerExchangeAddress);\r\n        wethTokenInterface = TokenInterface(wethAddress);\r\n        weth = IWETH (wethAddress); \r\n        beneficiary = beneficiaryAddress;\r\n\r\n    }\r\n\r\n    // This is the function that will be called postLoan\r\n    // i.e. Encode the logic to handle your flashloaned funds here\r\n    function callFunction(\r\n        address sender,\r\n        Account.Info memory account,\r\n        bytes memory data\r\n    ) public override {\r\n        ArbInfo memory arbInfo = abi.decode(data, (ArbInfo));\r\n        uint256 balanceWeth = weth.balanceOf(address(this));\r\n\r\n        // determine the middle token as the TOKEN ERC20 contract\r\n        IERC20 TOKEN = IERC20(arbInfo.middleToken);\r\n\r\n        // where to buy the token\r\n        if(arbInfo.buyFrom == DExchange.Kyber){\r\n\r\n            // buy TOKEN from kyber\r\n            weth.approve(address(kyber) , balanceWeth );\r\n            (uint expectedRate , ) = kyber.getExpectedRate(weth , TOKEN , balanceWeth);\r\n            kyber.swapTokenToToken(weth , balanceWeth , TOKEN , expectedRate);\r\n\r\n        } else if(arbInfo.buyFrom == DExchange.Uniswap){\r\n\r\n            // buy TOKEN from uniswap\r\n            weth.approve(address(uniswap) , balanceWeth );\r\n            address[] memory path = new address[](2);\r\n            path[0] = address(weth);\r\n            path[1] = address(TOKEN);\r\n            uint[] memory minOuts = uniswap.getAmountsOut(balanceWeth , path);\r\n            uniswap.swapExactTokensForTokens(balanceWeth , minOuts[1] , path , address(this) , block.timestamp);\r\n\r\n        } else if(arbInfo.buyFrom == DExchange.Sushiswap){\r\n\r\n            // buy TOKEN from sushiswap\r\n            weth.approve(address(sushiswap) , balanceWeth );\r\n            address[] memory path = new address[](2);\r\n            path[0] = address(weth);\r\n            path[1] = address(TOKEN);\r\n            uint[] memory minOuts = sushiswap.getAmountsOut(balanceWeth , path);\r\n            sushiswap.swapExactTokensForTokens(balanceWeth , minOuts[1] , path , address(this) , block.timestamp);\r\n            \r\n        } else if(arbInfo.buyFrom == DExchange.Balancer){\r\n            \r\n            // buy TOKEN from balancer\r\n            weth.approve(address(balancerExchange) , balanceWeth);\r\n\r\n            ( , uint expectedBalancerAmount) = balancerExchange.viewSplitExactIn(\r\n                address(weth), \r\n                address(TOKEN), \r\n                balanceWeth,\r\n                10);\r\n\r\n            balancerExchange.smartSwapExactIn(\r\n                wethTokenInterface , \r\n                tokenTokenInterface,\r\n                balanceWeth ,\r\n                expectedBalancerAmount,\r\n                10); \r\n\r\n        } else if(arbInfo.buyFrom == DExchange.Oneinch){\r\n            weth.approve(address(onesplit) , balanceWeth);\r\n            (uint onesplitReturn , uint[] memory dist) = onesplit.getExpectedReturn(\r\n                weth,\r\n                TOKEN,\r\n                balanceWeth,\r\n                100,\r\n                0\r\n            );\r\n            onesplit.swap(\r\n                weth,\r\n                TOKEN,\r\n                balanceWeth,\r\n                onesplitReturn,\r\n                dist,\r\n                0\r\n            );\r\n        }\r\n\r\n        // where to sell TOKEN\r\n        if(arbInfo.sellTo == DExchange.Kyber){\r\n\r\n            // sell TOKEN to kyber\r\n            TOKEN.approve(address(kyber) , TOKEN.balanceOf(address(this)));\r\n            (uint expectedRate , ) = kyber.getExpectedRate(TOKEN , weth , TOKEN.balanceOf(address(this)));\r\n            kyber.swapTokenToToken(TOKEN , TOKEN.balanceOf(address(this)) , weth , expectedRate);\r\n\r\n        } else if(arbInfo.sellTo == DExchange.Uniswap){\r\n\r\n            // sell TOKEN to uniswap\r\n            TOKEN.approve(address(uniswap) , TOKEN.balanceOf(address(this)));\r\n            address[] memory path = new address[](2);\r\n            path[0] = address(TOKEN);\r\n            path[1] = address(weth);\r\n            uint[] memory minOuts = uniswap.getAmountsOut(TOKEN.balanceOf(address(this)) , path);\r\n            uniswap.swapExactTokensForTokens(TOKEN.balanceOf(address(this)) , minOuts[1] , path , address(this) , block.timestamp);\r\n        \r\n        } else if(arbInfo.sellTo == DExchange.Sushiswap){\r\n\r\n            // sell TOKEN to sushiswap\r\n            TOKEN.approve(address(sushiswap) , TOKEN.balanceOf(address(this)));\r\n            address[] memory path = new address[](2);\r\n            path[0] = address(TOKEN);\r\n            path[1] = address(weth);\r\n            uint[] memory minOuts = sushiswap.getAmountsOut(TOKEN.balanceOf(address(this)) , path);\r\n            sushiswap.swapExactTokensForTokens(TOKEN.balanceOf(address(this)) , minOuts[1] , path , address(this) , block.timestamp);\r\n       \r\n        } else if(arbInfo.sellTo == DExchange.Balancer){\r\n\r\n            // sell TOKEN to balancer\r\n            TOKEN.approve(address(balancerExchange) , TOKEN.balanceOf(address(this)));\r\n\r\n            ( , uint expectedBalancerAmount) = balancerExchange.viewSplitExactIn(\r\n                address(TOKEN), \r\n                address(weth), \r\n                TOKEN.balanceOf(address(this)),\r\n                10);\r\n\r\n            balancerExchange.smartSwapExactIn(\r\n                tokenTokenInterface , \r\n                wethTokenInterface,\r\n                TOKEN.balanceOf(address(this)) ,\r\n                expectedBalancerAmount,\r\n                10);\r\n\r\n\r\n        } else if(arbInfo.sellTo == DExchange.Oneinch){\r\n\r\n            // sell TOKEN to Oneinch\r\n            TOKEN.approve(address(onesplit) , TOKEN.balanceOf(address(this)));\r\n            (uint onesplitReturn , uint[] memory dist) = onesplit.getExpectedReturn(\r\n                TOKEN,\r\n                weth,\r\n                TOKEN.balanceOf(address(this)),\r\n                100,\r\n                0\r\n            );\r\n            onesplit.swap(\r\n                TOKEN,\r\n                weth,\r\n                TOKEN.balanceOf(address(this)),\r\n                onesplitReturn,\r\n                dist,\r\n                0\r\n            );\r\n        }\r\n\r\n        \r\n        require(\r\n            weth.balanceOf(address(this)) > arbInfo.repayAmount,\r\n            \"Not enough funds to return the DY/DX flashloan\" \r\n            );\r\n\r\n        // calculate profit and withraw it\r\n        uint profit = weth.balanceOf(address(this)) - arbInfo.repayAmount;\r\n        weth.transfer(beneficiary , profit);\r\n        emit newArbitrage( arbInfo.buyFrom , arbInfo.sellTo , arbInfo.middleToken , profit , block.timestamp);   \r\n    }\r\n\r\n    function initiateFlashloan(\r\n        address _solo,\r\n        address _token,\r\n        uint256 _amount,\r\n        DExchange _buyFrom,\r\n        DExchange _sellTo,\r\n        address _middleToken\r\n          )\r\n        external\r\n    {\r\n        ISoloMargin solo = ISoloMargin(_solo);\r\n\r\n        // Get marketId from token address\r\n        uint256 marketId = _getMarketIdFromTokenAddress(_solo, _token);\r\n\r\n        // Calculate repay amount (_amount + (2 wei))\r\n        // Approve transfer from\r\n        uint256 repayAmount = _getRepaymentAmountInternal(_amount);\r\n        IERC20(_token).approve(_solo, repayAmount);\r\n\r\n        // 1. Withdraw $\r\n        // 2. Call callFunction(...)\r\n        // 3. Deposit back $\r\n        Actions.ActionArgs[] memory operations = new Actions.ActionArgs[](3);\r\n\r\n        operations[0] = _getWithdrawAction(marketId, _amount);\r\n        operations[1] = _getCallAction(\r\n            // Encode MyCustomData for callFunction\r\n            abi.encode(ArbInfo({buyFrom: _buyFrom , sellTo: _sellTo , middleToken: _middleToken, repayAmount: repayAmount}))\r\n        );\r\n        operations[2] = _getDepositAction(marketId, repayAmount);\r\n\r\n        Account.Info[] memory accountInfos = new Account.Info[](1);\r\n        accountInfos[0] = _getAccountInfo();\r\n\r\n        solo.operate(accountInfos, operations);\r\n    }\r\n\r\n    fallback() external payable {  }\r\n}",
  "sourcePath": "C:/Amin/ETH/ARB_FIN/contracts/Flashloan.sol",
  "compiler": {
    "name": "solc",
    "version": "0.6.12+commit.27d51765.Emscripten.clang"
  },
  "schemaVersion": "3.3.3",
  "updatedAt": "2021-03-07T21:34:30.725Z",
  "networkType": "ethereum",
  "devdoc": {
    "kind": "dev",
    "methods": {},
    "version": 1
  },
  "userdoc": {
    "kind": "user",
    "methods": {},
    "version": 1
  }
}